:020000040000FA
:10200000E8070020D9200000E72000007D3700000D
:1020100000000000000000000000000000000000C0
:10202000000000000000000000000000EB200000A5
:102030000000000000000000ED200000EF20000084
:10204000656E0000F1200000F12000007D6E0000B0
:10205000F1200000F1200000B5370000D33200006D
:10206000B1580000F120000045570000F1200000A9
:10207000F1200000DD4A0000B5580000F12000000A
:10208000F1200000F1200000F1200000F12000000C
:10209000F12000000000000000000000000000002F
:1020A0000000000000000000000000000000000030
:1020B0000000000000000000000000000000000020
:1020C0000448854600F0C2F900480047DD6E000074
:1020D000C046C046E8070020064880F30888064846
:1020E000804706480047FEE7FEE7FEE7FEE7FEE71B
:1020F000FEE70000E8070020BD570000C1200000F7
:1021000030B50B46014600202022012409E00D468F
:10211000D5409D4205D31D469540491B2546954017
:1021200040191546521E002DF1DC30BD70B500245B
:102130002546002801DA01244042002901DA012560
:102140004942FFF7DDFFAC4200D04042002C00D0F6
:10215000494270BD03460B439B0703D009E008C901
:10216000121F08C0042AFAD203E00B780370401C47
:10217000491C521EF9D27047F8B502464A40D40FA6
:1021800042004B0052085B089A4202D202460846BF
:1021900011464A0023D0C30D4A00DDB2120EAD1A1B
:1021A000202D35DA49020126490AF6058A19002C44
:1021B00000D0524220214F1B1146B9402A4110182D
:1021C000C20D9A4221D0002C17D0012D08DCDA056F
:1021D000801AD20F8019D207DBB200F0FDF8F8BDEB
:1021E000DA05801A012340001B06C01880185A42E5
:1021F0008018CA0F1043490007E04908C20711437D
:10220000DA05801A80194008801800F0DDF8F8BD62
:1022100061000122511A001BF7E70122D207514049
:10222000AAE70122D2075040A6E7024670B54A400D
:10223000D30FDB0740002DD04A002AD0010E140E28
:10224000000212020919400A520A8418E5010446E4
:102250005443000A120A2E045043A4194219200CB8
:10226000C543AA18120C0125AD03521C52191204C1
:102270007F39240400D0521C104301D44000491E71
:10228000C2B20C06C0092018401C4008802A02D0A7
:1022900003E0002070BD40084000002900DA002063
:1022A000184370BD70B502464A40D50F40004A0041
:1022B000ED0740085208002814D0002A12D0C40D9F
:1022C000D30D41020120C0055202490A520AE41A04
:1022D000091812187D34914201D3641C00E04900B2
:1022E000002C01DA002070BD0023914201D3891A2D
:1022F0000343400849000028F7D100290AD0914241
:1023000002D10121C90705E0914201D2012101E07A
:102310000121C943E005C018401900F055F870BD0F
:10232000C217C10F504010B54018CA0796230021AC
:1023300000F052F810BD10B500229623114600F0AF
:102340004BF810BDC20F410040020123400ADB05DB
:10235000D207090EC0187F2901DA0020704796299C
:1023600003DC9623591AC84001E096398840002AB8
:10237000F4D040427047410040020122400AD20599
:10238000090E80187F2901DA00207047962903DCA6
:102390009622511AC840704796398840704700000D
:1023A0000122D207002800DB101A002900DB511A95
:1023B000814270470122D207002800DB101A002951
:1023C00000DB511A88427047002904DA401C49009A
:1023D00001D140084000704770B40024050C05D1BD
:1023E0001024000402D1002921D01124050E01D1AE
:1023F00000020834050F01D10001241D850F01D111
:102400008000A41C002801DB4000641C002908D0C7
:1024100020252E1B0D46F540A14000D00121294367
:10242000084301061B1B000ADB1D02D5002070BCFF
:102430007047DB05181880180029F8DA401C49009D
:10244000F5D170BC4008400070470000064C0125E3
:10245000064E05E0E36807CC2B430C3C984710344C
:10246000B442F7D3FFF730FE90750000B07500005E
:1024700070B58C180578401C6B075B0F01D1037891
:10248000401C2A1106D10278401C03E006780E7029
:10249000401C491C5B1EF9D12B0705D40023521E9A
:1024A0000DD40B70491CFAE70378401CCB1A921C20
:1024B00003E01D780D70491C5B1C521EF9D5A1422A
:1024C000D8D3002070BD000000B589B001A800F08D
:1024D000FBFB012168468180C1800A2181810021A6
:1024E00041810121C1820021818201A9124800F0AD
:1024F000C5FB01204002104980318861C8618862B3
:10250000C862002008614861086248620B480860A0
:10251000486001200849403108614861912000016C
:1025200088610748C86107480862FF200249803176
:10253000486309B000BD000000140140FF03000023
:10254000070800000C0E00000020074948650860DD
:102550008862486408670021034880304166016151
:1025600041618161C16170474801002010B56B482D
:10257000008A02287ED10121684801820146403943
:10258000096A0246403A926A51430246403A526A08
:102590000346403BDB6A5A4388187D21FFF7C6FD9E
:1025A0005F4918228A5E811A5C48403801630146FF
:1025B0004A6A896A4A430146096A0346DB6A594303
:1025C000501A7D21FFF7B2FD544940394863554800
:1025D000008832282EDA53480088401C5149088070
:1025E0004E48C038C0685049896909B240184B4903
:1025F000C039C860084640694B49C96909B24018EA
:102600004649C039486108468030406C26228A5EBF
:102610008118424840384164C16C40382C22825EA7
:1026200089184030C164C168006B09183B484038C4
:10263000C1606FE03B48008832286BD101203949E6
:10264000088036494039486C3221FFF759FD81B284
:102650003248018001464039C86C3221FFF750FDF5
:1026600081B22E48018101464039C8683221FFF706
:102670005DFD00E050E001B228484038018180381B
:102680002621415E8030416440382C21415E40303B
:10269000C164016BC1608038C068002804DA002082
:1026A0001E49C039488208E01C49C039C868C821A1
:1026B000FFF73CFD1949C03948821848C0384069C5
:1026C000002804DA00201549C039488308E013497E
:1026D000C0394869C821FFF729FD1049C03948832E
:1026E0001148806900B20D49C039C8600E48C06900
:1026F00000B248610846408A0C49085C28380749FE
:10270000C03908820846408B0949085C28380349CB
:10271000C039088301F012FB10BD00000802002040
:10272000B4030020000000200014014044710000A8
:10273000446F000010B5FE481021415E002939DACF
:10274000008A401C01B2FA480182C038006AF94987
:1027500009694018F649C03908620846C06BF54956
:10276000096A4018F249C039C8630846C06DF1498A
:10277000496809B24018EF49C96809B24018EC49E4
:10278000C039C8650846406EEA49096809B2401870
:10279000E849896809B24018E549C03948660846E1
:1027A0008030806DE349496A09B24118E0484038F9
:1027B00081655AE2DE48008A00283ED10121DC48CA
:1027C00001820146C039086ADB49FFF7AFFCD849EE
:1027D000C039C861C86BD849FFF7A8FCD449C039D3
:1027E0008863C86DD449FFF7A1FCD149C039886519
:1027F000486ED149FFF79AFCCD49C039086680314F
:10280000886DCD49FFF792FCC949403948650846B3
:102810008038C0697D21C900884206DCC448C038C0
:10282000C069E12189008842C3DAC4480088FF21D9
:1028300001310843C149088017E2BE48406900B22F
:10284000BB49C03908228A5E5043BD4908627D20D9
:10285000C00048620846806A00B2B549C039C880E5
:102860000846808BB3490969401A00B2B049C039A3
:10287000096B4843B24908627D20C000486208469F
:10288000806A00B2AA49C0398884AA48006A098FC0
:10289000401A00B2A649C039C96C4843A849086229
:1028A0007D20C00048620846806A01B2A048803896
:1028B0000180A448007802281FD19E48406800B2D9
:1028C0009C49C96809B240189949C039896D401AB4
:1028D0009849096809B2974A926812B28918944ACD
:1028E000C03A126E891A401A9149C039896F48431B
:1028F00093490862944848622DE094481421415E4F
:10290000002914DD8B48406800B28A49C96809B2C1
:1029100040188749C039896D401A8549C039896F87
:102920004843874908627D20C000486213E0804820
:10293000C038006E7F49096809B2401A7D4989682C
:1029400009B2401A7A49C039896F48437C49086204
:102950007D20C00048627A48806A01B2744880389D
:1029600001852821415E002902DD018D418507E0B6
:102970006F488038008D404201B26D4880384185F3
:102980006B484038406D6B49496A09B2401A684942
:102990004039C96E48436A4908626D484862084632
:1029A000806A01B262488183C038416D403028227C
:1029B000825E88185E49C03948650846006806226C
:1029C0008A5E8018086061480078C007C00F002840
:1029D00037D02420085E4043896A40185449C039E2
:1029E000886240312820085E40434039096F401812
:1029F0004F49C03908672420085E54490C228A5E7A
:102A000050434F490862534848624948403800697A
:102A1000896A411846484038016145491C20085ED2
:102A20004A490C228A5E5043454908624948486237
:102A30003F4840388069896A41183D484038816183
:102A40003BE03B4980390020085E40434039496CF7
:102A500040183749C0394864C0311C20085E4043E3
:102A60004039496E41183248403841660146803944
:102A70002420085E35490E228A5E504330490862A0
:102A8000344848622A4840384069896A41182848D1
:102A90004038416126491C20085E2C490E228A5E7E
:102AA0005043274908622B48486221484038C06992
:102AB000896A41181E484038C1612448008864284A
:102AC0007ED12548808A012806D11E480078022838
:102AD00002D1FFF739FD10BD022115480182C0382F
:102AE0000068174908621948408848620846806AA9
:102AF00000B20F49C03988800846806A10490862D0
:102B00001248408848620846806A40000849C03937
:102B1000C8620846C06A0A4908630846406B00B2AA
:102B20000349C039C8840846406C0549086215E06D
:102B30000802002000140140204E0000A8020020DE
:102B400000500140100000201D0600006802002017
:102B500018FCFFFFFF7F0000C002002044484088AF
:102B600048620846806A4000424988640846806C92
:102B7000414908630846406B01B23E4840304180FD
:102B80004038006F3C49086239484088486208462E
:102B9000806A4000374948670846406F36490863F5
:102BA0000846406B283801B23248403081854030B9
:102BB000406E314908622E4840884862084600E06D
:102BC00053E0806A41002B4880308166806E2A493C
:102BD00008630846406B01B22648C0300184C03803
:102BE000406D254908622248408848620846806A4C
:102BF00020490865002048650860886248640867C5
:102C000000211C488030416600691B490862184851
:102C1000408848620846816A1648803001624069EF
:102C2000154908621248408848620846816A11487E
:102C3000803041628069104908620D4840884862CE
:102C40000846816A0B4880308162C0690A4908627F
:102C50000748408848620846816A06488030C16259
:102C60000021016141618161C16100BF33E7000062
:102C700068020020480100200050014010B50C8877
:102C8000B0231C504B88CC8A640023439AB2B823EB
:102C90001A504B8A8C8A240123438C7924022343C3
:102CA0000C7C240323430C79A40323439AB2BC2352
:102CB0001A500B894C892402234383678B89CC8962
:102CC00024022343C36710BD00210180418081801D
:102CD000C180018141818181C181018241828182E2
:102CE000C182704710B502F0DFFC00F0C1F800F0BF
:102CF000D1F8FFF7E9FB044904480182002140387C
:102D00008163C16310BD0000E0B1FFFF0802002035
:102D1000104989688907890F0F4A1288914218D093
:102D20000C4989688907890F0B4A1180094989680C
:102D30008907490F094A515C0B39C8B20849094A49
:102D4000516308494031086048600861486106499C
:102D500051637047002001403C00002034000020F7
:102D6000ADDE0000401C0140FECA000010B51A494B
:102D70000420085E19494843194908621948486205
:102D80000846806A04B218491C20085EA04202DA94
:102D900008461C24045F1548806801218902084008
:102DA000002808D112488461C4612046FFF7B8FAB0
:102DB0000F4988630EE00C48C08E0D4988610A48AF
:102DC000C08EC8610849C98E08466438FFF7A8FA62
:102DD0000749886310BD0000480100200B1A00005D
:102DE0000050014010270000F002002000200140A8
:102DF000680200200B48806804210840002808D1A0
:102E00000120094908710021084841770321017711
:102E100006E0002004490871032104484177017746
:102E200070470000C0200140A80200208802002056
:102E300010B50B48807D002802D100F091F80EE01B
:102E40000748807D022805D1842206490648FFF7FD
:102E500081F904E0842205490348FFF77BF910BD9E
:102E600074030020C4000020F00200204000002075
:102E700001208007C06A0321490208430121890714
:102E8000C8620846C06A0321490308430121890733
:102E9000C862704701208007406B01210903084385
:102EA000890448630846C06AC9140843C904C86253
:102EB0000846406A064908400121890748624815CA
:102EC00004494863044803494039C8637047000017
:102ED0003FFF000080000040FF0F000001B50AE046
:102EE000002002E000BF411C88B205498842F9DB9E
:102EF0000099491E009100990029F1D108BD0000F8
:102F00003A07000001B508E0002001E0411CC8B20A
:102F10000D28FBDB0099491E009100990029F3D18F
:102F200008BD00000B4909680B4A1140094A1160AD
:102F30001146486009681122D2061143054A116002
:102F40000649116111460968034A1140014A11609E
:102F50007047000000040040FF7FFF77BADC547622
:102F60000F49104A1268104B1A430E4B1A6000208A
:102F70000BE0C21DFF32FA320A4B5A601A46D26881
:102F800083109B00CA50021D90B28428F1D3054AD9
:102F90001268054BDB431A40024B1A607047000071
:102FA000F0020020000400400008080010B50C48A2
:102FB00000680C4908430A4908608A1549150A48FF
:102FC00000F07AF9FF2201325100074800F074F94D
:102FD000034800680349C94308400149086010BD1F
:102FE0000004004000080800F002002010B500F0C6
:102FF000D5F85E48007E202868D001205B4988759E
:103000002020087620215948417601218176C17619
:1030100057485849088158480863C864E120C000EF
:1030200088671921090253488030C16680380089B9
:103030004E4988814F48008E00B2C8814D48C06C0F
:1030400000B208824B48806F00B248824948803005
:10305000C06E00B288820021444840300183418321
:1030600000241EE04548015D40481C30015544489D
:10307000015D3E48263001554248015D3B483030F5
:1030800001554148015D39483A3001553F48015DDD
:103090003648443001553E48015D34484E300155B4
:1030A000641C0A2CDEDB3B4800683B490843394975
:1030B0000860802200212D4800F0FEF835480068A5
:1030C0003549C9430840334908604CE0002448E0D2
:1030D00026484430005D2D49095D884240D00024D7
:1030E00019E02748015D2148263001552548015D3A
:1030F0001E48303001552448015D1C483A300155C6
:103100002248015D1948443001552148015D1748A6
:103110004E300155641C0A2CE3DB14491220085E72
:10312000FF2109020840002807D1E120C0000F4913
:1031300048821220085E0F498867164800681649C1
:1031400008431449086080220021084800F0B4F8C0
:10315000104800681049C94308400E49086010BD76
:10316000641C0A2CB4DB00BFF9E7000074030020E4
:103170000E0B0000480100205310000054730000A3
:103180005E73000068730000727300007C730000BF
:1031900086730000000400400008080019491A4A1C
:1031A00012681A4B1A43184B1A60002007E0164A9F
:1031B0005060D26883109B00CA50021D90B25C28F8
:1031C000F5D3114A1268114BDB431A400E4B1A60BB
:1031D0000C4A92890E4B1A810A4B0E229A5E0C4BB6
:1031E0001A63084B10229A5E094BDA64054B1222CF
:1031F0009A5E074B9A67034A1423D35E044A8032CF
:10320000D3667047740300200004004000080800E3
:103210004801002010B514480089144988811248DB
:10322000008E00B2C8811048C06C00B208820E48FF
:10323000806F00B248820C488030C06E00B2888235
:103240000B4800680B4908430949086080220021A7
:10325000064800F031F8064800680649C9430840AE
:103260000349086010BD00004801002074030020DD
:103270000004004000080800084900200BE00F226D
:10328000D2028218064B5A601A46D26883109B00FD
:10329000CA50021D90B22028F1DB7047D0030020F5
:1032A0000004004010B520220F21C902014800F09F
:1032B00003F810BDD003002070B504460D46164635
:1032C0002846FFF72FFE22463146284602F012FA22
:1032D00070BD7047F0B50B46002200240025002188
:1032E00000BF60E00126964034461E682640354601
:1032F000A54257D11E79002E0CD1016801269640B7
:10330000314301604168012696400F46B743394674
:10331000416018E01E79012E0BD1016896400F46DE
:10332000B743394601604168012696403143416008
:1033300009E01E79022E06D14168012696400F460B
:10334000B743394641605E79012E04D10169964048
:103350003143016119E05E79022E05D141690126F0
:1033600096403143416110E05E79002E0DD1016934
:10337000012696400F46B74339460161416901264F
:1033800096400F46B7433946416181699E68012ED8
:1033900002D19640314304E0012696400F46B743E0
:1033A00039468161521C102A9CD3F0BD30B50C46C1
:1033B000230003F075FD10090F171E252B333A412A
:1033C000474F565D636B7279016A394D29408B18FE
:1033D00003626AE0016A364DE13D294013015B1842
:1033E000036262E0016A334D29400B029B180362BD
:1033F0005BE0036A1905090D13035B18036254E0CF
:10340000416A2B4D29408B1843624EE0416A284D9A
:10341000E13D294013015B18436246E0416A254DB6
:10342000294013025B1843623FE0436A1905090D06
:1034300013035B18436238E0816A1D4D29408B18E5
:10344000836232E0816A1A4DE13D294013015B1825
:1034500083622AE0816A174D294013025B18836258
:1034600023E0836A1905090D13035B1883621CE0CE
:10347000C16A0F4D29408B18C36216E0C16A0C4D1A
:10348000E13D294013015B18C3620EE0C16A094D9A
:10349000294013025B18C36207E0C36A1905090DCE
:1034A00013035B18C36200E000BF00BF30BD000023
:1034B000F0FF0000FFF0000030B504460D4600228A
:1034C0002946204600F010F830BD30B504460D46C0
:1034D00001222946204600F007F830BD0021016096
:1034E000017141718160704710B51346C268002BAD
:1034F00003D014460C43224602E014468C43224675
:10350000C26010BD0EB56846FFF7E8FF01216846AE
:10351000017133200001009069468348FFF7DAFE0D
:10352000032204218048FFF741FF032205217E4842
:10353000FFF73CFF032208217B48FFF737FF0322F8
:1035400009217948FFF732FF0121684601710820FF
:10355000009069467448FFF7BDFE694672484030E6
:10356000FFF7B8FE012168460171402000906946CE
:103570006D48FFF7AFFE002206216B48FFF716FFEC
:103580000121684601718020009069466648FFF776
:10359000A1FE002207216448FFF708FF08216248C6
:1035A0004030FFF789FF80215F48FFF785FF00214A
:1035B00068460171012141711020009069465A4806
:1035C0004030FFF787FE0422114657484030FFF78E
:1035D000EDFE0121684601712020009069465248A5
:1035E0004030FFF777FE042205214F484030FFF7B7
:1035F000DDFE022168460171002141714B480090B7
:10360000694649484038FFF765FE02216846017166
:103610000021417146480090694643484030FFF719
:1036200059FE02216846017100214171A3200090DA
:1036300069463D488030FFF74DFE01216846017123
:1036400080200090694638484030FFF743FE012152
:103650006846017108020090694633488030FFF7E0
:1036600039FE0121684601718020009069462E488C
:103670004038FFF72FFE01216846017108200090B5
:1036800069462948FFF726FE012168460171880234
:103690000090694624484030FFF71CFE0121890252
:1036A00021484030FFF711FF002168460171214891
:1036B000009069461C484038FFF70CFE0021684620
:1036C00001710120009069461748FFF703FE0021B1
:1036D000684601710B20C0020090694612484030D4
:1036E000FFF7F8FD0021684601710420009069464B
:1036F0000D488030FFF7EEFD002168460171012082
:10370000C0020090694608484038FFF7E3FD0822F0
:103710000B2105484038FFF749FE0748006804219F
:103720000843054908600EBD4020014038B0000044
:10373000460200004304000000500140F0B504467A
:10374000104609E005122678641C6E403606F60D18
:103750009E5B07027E40B0B20E464F1E39B2002E6D
:10376000F0DCF0BD30B504460D46034B002229467F
:103770002046FFF7E3FF30BD907300000848094979
:1037800048630846406A084908400649486200BF45
:1037900006480749C860BFF34F8F00BF00BFFEE770
:1037A000ADDE0000401C0140BFFF00000400FA0530
:1037B00000ED00E000BFFEE710B5FFF75DFD054836
:1037C000C07C022804D002200249C874FFF76AFDB9
:1037D00010BD0000D003002001480249C8607047B6
:1037E0000400FA0500ED00E070B50F4988698F21EB
:1037F000C905FEF71AFD06460C49FEF753FD0546BE
:103800007F21C905FEF7B8FC0446FEF7B4FD084960
:103810008860054881690548FEF744FD0446FEF7C7
:10382000AAFD0349488070BDF002002000409C467C
:103830006802002010B5E1239B00C31819B2E123F0
:103840009B001B1A1AB24B420A4C23602346596054
:103850005342236123465A61FF23C333984205DA5A
:103860005B42984202DD044B236202E0034B014CB1
:10387000236210BD001C014002F9FFFF86FCFFFF20
:10388000084AD06A084A1268811A074A1060074A33
:1038900011620922054B5A621A46926A044B1A8237
:1038A00070470000401801401800002000500140FF
:1038B0006802002010B501210748017700214177F7
:1038C0008177FFF791FF0020034920394860088085
:1038D00000F0DEFE10BD00008802002010B5014699
:1038E0000E4B28241C5F0B1B0D4C236219236362B3
:1038F00023469B6A1AB22346196206236362234653
:103900009B6A9B1818B21B235B01984201DD184685
:1039100003E0044B984200DA184610BD88010020ED
:1039200000500140A0FCFFFF054A0C21515E054AF2
:103930001162302151621146896A08B27047000055
:10394000680200200050014010B5074800780128A7
:1039500002D100F087FA05E003480078022801D17F
:1039600001F0D8FA10BD0000100000205749098A64
:10397000574A91424FDD5549098A564A91424ADADF
:10398000554902228A5EFF212D318A4243DD534987
:1039900049880A290EDA51494988491C4F4A518001
:1039A0004F49504A9161A421484A9160FF219131C9
:1039B000518089E0484902228A5E4A494031898B18
:1039C00032318A42F5DD444902228A5E454940315E
:1039D000498B64398A4277DA40494988322905DAC5
:1039E0003E494988491C3D4A51806DE000213B4ACF
:1039F0005180114620310870344909880A2906DDB2
:103A000032490988D22902DA0A21D1835CE0D22125
:103A1000324AD18358E02D49098A334A91424FDD19
:103A20002A49098A314A91424ADA2B4902228A5E9E
:103A3000FF212D318A4243DD284989880A290EDA7F
:103A400026498988491C254A91802949254A91613E
:103A5000C4211E4A9160FF214F31518034E01E493C
:103A600002228A5E1F494031898B32318A422BDD26
:103A7000194902228A5E1B494031498B64398A42C6
:103A800022DA164989883C2905DA14498988491CB3
:103A9000124A918018E00021104A9180114620318D
:103AA00008700A4909880A2906DD08490988B129E8
:103AB00002DA0A21D18307E0B121084AD18303E069
:103AC0000021064A51809180704700006802002062
:103AD0002C4C00001450000088010020C00200207F
:103AE00000004842F0020020263F00000F43000083
:103AF0000000704210B500F0A9F9FFF7DBFE01F0FD
:103B0000C9F90020084908707D2040010749C88292
:103B100007480883012088760020C88300210348D5
:103B20002030017010BD000010000020C0020020F5
:103B3000EE02000010B54F4800884F4908804F48FA
:103B400080680121C90208404A4908800846008867
:103B500049490988884212D04948418A4088401022
:103B60001438814203DC4748808A002807D1464840
:103B700000880C210840002801D141494882404872
:103B8000418A408840101430814205DA3C48408A1E
:103B9000401C3B4948826BE03948418A40885A388A
:103BA00081422BDA802135484030FFF785FC08211F
:103BB00032488030FFF780FC0020324988760320AD
:103BC0008882324800888721C900884205DA2F4858
:103BD000008824302D49088003E08720C0002B494D
:103BE00008802A48008800B201F096F800F066FFCD
:103BF0002348408A401C2249488239E0002023495A
:103C0000088001F055F9012189021C488030FFF736
:103C10005CFC00201A4948821A48C07E022803D161
:103C200001201B49087002E000201949087000F0CB
:103C30002FFD0020C0431249088203211048203084
:103C4000017714491C20085EFEF76AFB0C49886363
:103C500010491C20085E0A4988610E491C20085E34
:103C60000749C861012106482030817700F0CCF86F
:103C700010BD0000120000201400002000200140B0
:103C800068020020C0020020E2020020160000208E
:103C900010000020F002002010B524480078002811
:103CA00030D02348008821492039C98B884229D146
:103CB0001E480078012808D100201C49203988833B
:103CC00080211C48FFF701FC07E018480078022813
:103CD00003D1192015492039888300F0D9FC01F05F
:103CE000E7F8FEF731FC01F0FFF8022012490870F6
:103CF00001F0D0F800210D48017000200B49203957
:103D000048808880FEF716FD0B480078012802D114
:103D100000F0DEFB07E008480078022803D1FFF737
:103D200009FF01F001FB00F0E1FC10BDE002002002
:103D300068020020402001401000002010B5074814
:103D40000078012802D100F04FF905E0034800781F
:103D5000022801D101F03AF910BD00001000002046
:103D600010B5FFF78DFD1048007801280ED10F49DE
:103D70000420085E7D21C900884203DD0220FFF790
:103D8000F5FD0AE00120FFF7F1FD06E006480078A6
:103D9000002802D10120FFF7E9FD0348007802283E
:103DA00001D100F0D1FF10BD10000020480100201B
:103DB00010B513481021415E2D2908DC1821415E01
:103DC0002D2904DC40302C21415EFA2904DD4021FC
:103DD0000C48FFF77AFB11E009481021415E2829C1
:103DE0000CDA1821415E282908DA40302C21415E86
:103DF000C82903DA40210348FFF75EFB10BD00002D
:103E000048010020402001400F480088FF21013177
:103E10000840002800D070470B480088002810D0C8
:103E20000120C003084908800020C88008818881DB
:103E3000C881088248828882084600884004400C75
:103E4000088000BFE7E70000A80200200020044926
:103E5000088088708820C8700120087170470000B1
:103E6000A802002010B558480021415E642905DAF7
:103E70000088401C00B25449088002E000205249EA
:103E800008805248407F00281BD080215048FFF70F
:103E900013FB4D480021415E322906DAFF21013132
:103EA0004B484030FFF711FB46E047480021415E98
:103EB000642941DAFF21013145484030FFF7FCFA1F
:103EC0003AE04448008800282CD1FF2101314048C5
:103ED0004030FFF7FAFA40482021415E3F48C08C4D
:103EE00081420BDA3C484038016B3C48808D81426E
:103EF00004DA80213648FFF7DFFA1DE0324800215E
:103F0000415E322904DA80213148FFF7DEFA13E0FE
:103F10002D480021415E64290EDA80212C48FFF7EC
:103F2000CBFA09E0FF21013129484030FFF7C4FAFC
:103F300080212748FFF7C9FA254840388068C00724
:103F4000C00F002820D126480021415E052905DA4E
:103F50000088401C00B22249088031E01E49C03967
:103F60002420085EFF21F531884229DA1A49C03938
:103F70002420085E1B49884222DD164800888021E3
:103F80000843144908801BE015490020085E0421FD
:103F9000C943884206DD12480088401E00B210491D
:103FA00008800DE00E490020085E401D002807D162
:103FB000FFF72AFF0A480088401E00B2084908801F
:103FC000FFF7F6FE10BD0000200000208802002050
:103FD00080200140A80200200802002030030020B9
:103FE000220000200CFEFFFF00B551480421415E75
:103FF00050480088814207DA4F4800884F490840FE
:104000004D4908800020C8804B48007901280BD119
:1040100000F096F800F026FA00F070F900F0E2F9EE
:1040200000F02EF900F0DEF843480088002802D1A5
:10403000414988707AE040480088FF2101310840FA
:10404000002803D00D203C4988706FE03A48008872
:1040500002210840002803D001203749887065E01C
:1040600035480078C007C00F002803D0022032492D
:1040700088705BE03048008804210840002803D0A5
:1040800003202D49887051E02B48008820210840EA
:10409000002803D004202849887047E0264800887B
:1040A00010210840002803D00520234988703DE0F6
:1040B00021480088012189030840002803D00620F8
:1040C0001D49887032E01C480088402108400028C3
:1040D00003D007201849887028E017480088082175
:1040E0000840002803D00820134988701EE01248B9
:1040F00000880121C9030840002803D009200E4987
:10410000887013E00C48008880210840002803D004
:104110000A200949887009E007480088012109033D
:104120000840002802D00C200349887000BD000020
:104130004801002070030020A8020020FEFF0000BC
:10414000254801892548008E814206DD22480088E5
:1041500002210843204908803CE02148016B1F48A8
:10416000008D814207DC1E4840302021415E1B4803
:10417000408C814207DD184801891848C08D081815
:104180001549088126E01648016B1448408D81428C
:1041900007DC134840302021415E1048808C81426A
:1041A00005DD0D480089401C0B49088112E00C48D0
:1041B000006B0A494039498D88420BDA0848403083
:1041C0002021415E05484038008D814202DA0020FE
:1041D0000149088170470000A80200203003002038
:1041E000C801002022481021415E2248408E8142B1
:1041F00006DC1F481821415E1E48808E814214DD76
:104200001D481021415E1B48C08E814206DA1A48C3
:10421000008A401C00B21849088227E0164800882E
:10422000402108431449088020E011481021415ED4
:104230001048408E0A38814218DA0D481821415E34
:104240000C48808E0A38814210DA0B481021415EFA
:10425000002905DD008A401E00B20749088205E0FA
:104260000548008805490840034908807047000058
:104270004801002030030020A8020020BFFF0000FA
:104280001A480421415E1A48C089814214DD194848
:104290001421415E1648008B814206DA1548808A57
:1042A000401C00B2134988821FE012480088202178
:1042B00008431049088018E00C480421415E0C486E
:1042C000C0896438814210DA0A481421415E00290D
:1042D00005DD808A401E00B20649888205E0054857
:1042E00000880549084003490880704748010020BC
:1042F00030030020A8020020DFFF00001548C1891C
:104300001548C08B814206DD124800880821084309
:10431000104908801DE011482621415E0E48408B5F
:10432000814205DD0B48C089401C0A49C88110E064
:104330000848C08900280CD008482621415E06485C
:10434000408B3238814204DA0248C089401E01495C
:10435000C8817047A80200203003002048010020D7
:1043600010B51B480069402829D11A482421415E14
:104370001948808F814222DA16482421415E16486E
:10438000808F404281421ADD14480079012816D1FD
:104390001248C1881048C08F81420BDD0F48008849
:1043A000012108430D49088000F072F903210C48EF
:1043B000017704E00948C088401C0849C8800848C3
:1043C00020380088002801D10449C88010BD0000B1
:1043D000401C01404801002030030020A8020020BA
:1043E000880200201B480421415E1B48808A8142CC
:1043F00014DA1A481221415E1748008B814206DA0E
:104400001648408A401C00B21449488220E01348F4
:104410000088102108431149088019E00D48042143
:10442000415E0D48808AFF302D30814210DD0B48FF
:104430001221415E002905DD408A401E00B2074975
:10444000488205E00548008805490840034908807E
:10445000704700004801002030030020A80200201F
:10446000EFFF00001748008800282AD115488189ED
:104470001548008C814206DD12480088042108435B
:10448000104908801DE011482621415E0E48808BAE
:10449000814205DA0B488089401C0A49888110E076
:1044A0000848808900280CD008482621415E06482B
:1044B000808B3230814204DD02488089401E0149F0
:1044C00088817047A80200203003002048010020A6
:1044D00010B56A48007F012806D0022818D00328AA
:1044E00076D0042875D18BE065481021415E002903
:1044F0000DDB624820380088002808D100F0CEFA91
:10450000FEF734FCFEF776FC02215C480177B3E04D
:10451000FFF726FF5B48008800286BD157482038FA
:10452000008801280DD1584A2021515E534A203A73
:10453000128B10B200F084F950492039C86101F0A3
:1045400003F94E48407F002819D100F0FDF84B498F
:104550002039898B08B200F07DFA48492039488417
:104560002220085E00F01AFA4449203908842020ED
:10457000085EFFF7B3F941492039888233E03F48AC
:10458000407F012810D13D4920391420085E2121A7
:104590000901884227DA39482038808A401C00B255
:1045A0003649203988821EE03448407F022811D1E4
:1045B000324920391420085E3449884213DD2F48DF
:1045C0002038808A401E00B22C49203988820AE0B7
:1045D00017E050E02948407F032804D1FFF7A4F9F1
:1045E000264920398882254920391420085EFFF7A2
:1045F00021F904E000F04CF80321204801773BE06A
:104600003AE020480088002834D11C48203800882F
:1046100000280DD100F042FA1848807F002801D10F
:10462000FEF7A4FB0021154881770221017721E0E4
:104630001248203800881149203949884910884299
:1046400018D1114A2021515E0C4A203A128B10B227
:1046500000F0F6F809492039C86100F01FFA074850
:10466000807F002801D1FEF781FB0021034881777C
:104670000221017700E000BF00BF10BD88020020CA
:1046800008020020A8020020F0020020F0FDFFFF39
:1046900010B500F0F3F9104810490860E1208000DF
:1046A00048600D480861E120800048610C4848637B
:1046B0000C48C08E0C4988610A48C08EC861002031
:1046C0008862C86208630749C88EFDF734FE064950
:1046D00088630020888210BD7CFC0000001C014023
:1046E000FFFF0000F002002068020020144840682C
:1046F0001349896840181249486008460088401CE0
:1047000008800846406801210904884209D30C4802
:10471000808880B20A4948600846008848800020A6
:10472000088007484068074948600846006900B2A9
:10473000034988810348406900B2C881704700007E
:10474000680200200050014010B53748008F3749FB
:104750000968884230D136482A21415E3248808E2D
:1047600081420EDC324940390420085E2E49498ED0
:10477000884206DB2E4880302021415E2D48814250
:104780001ADD2948C08E2C4988612749C88EFDF75B
:10479000D2FD04462848816B2046FDF701FE05D274
:1047A0002149C88EFDF7C7FD234988632249886BDC
:1047B000FDF7C8FD2049C8611D4940390420085E45
:1047C0007D21C90088420BDA4B20C0001A4988615C
:1047D0001A4888634B20C000C86100201349086054
:1047E0001548008800281ED10F48008F0F4909681E
:1047F000884205DD0D480068401C0C49086012E045
:104800000D48806908491C228A5E904206DA0A48EF
:104810008069498F40180849886104E002491C20DA
:10482000085E0549886110BDF00200201C000020D0
:1048300088010020DC05000068020020000016440A
:10484000FEB504464F490420085E4F4948434F498E
:1048500008624F4848620846806A85B2AC4200DD73
:104860002CB24C48406A801206B24A482027C75FE3
:10487000444A2621515E601AFDF752FD00904548DA
:1048800041680098FDF7D1FC01904348816B019885
:10489000FDF772FC4049C8623A49C03120228A5E65
:1048A000B81AFDF73DFD00903A4841680098FDF7C1
:1048B000BCFC01903848816B0198FDF75DFC3649DE
:1048C000086330498031098E09B2701AFDF728FD5E
:1048D0000090304841680098FDF7A7FC01902E48F1
:1048E000816B0198FDF748FC2B4948630A46116B20
:1048F000D06AFDF755FD0FD2274AD16A506BFDF7FC
:104900004FFD04D22448406B2349886313E02248BA
:10491000C06A214988630EE01F4A116B506BFDF796
:104920003FFD04D21C48406B1B49886303E01A48D2
:10493000006B19498863174A1C21515E0846C8302C
:10494000FDF7EEFC01901448816B0198FDF728FDFE
:1049500009D2104A1C21515E0846C830FDF7E0FC20
:104960000D49886308E00C49886B0021FDF718FDAC
:1049700002D20020084988630749886BFDF7E2FCF2
:1049800000B2FEBD480100200B1A0000005001409B
:1049900010270000F002002068020020F8B504464D
:1049A000264A2421515E601AFDF7BAFC07462348C7
:1049B000416B3846FDF7E0FB06462148C1683046AA
:1049C000FDF733FC07461F48816A3846FDF7D4FBE4
:1049D0001C498862194840302821415E184822222B
:1049E000825E5042814208DB144840302821415EFB
:1049F00013482222825E914206DD1249886A1249DA
:104A0000FDF713FC0F4988620E49886A0F49FDF7CC
:104A1000D1FC03D20D480B49886208E00949886A35
:104A20000B49FDF7BDFC02D20948064988620549D9
:104A3000886AFDF787FC05B22846F8BD48010020CA
:104A4000F002002068020020CDCC4C3F0080BB4526
:104A50000080BBC50146064B0C229A5E4A43054BBB
:104A60001A62054A5A621A46926A10B270470000EA
:104A70006802002000500140855A000004480549A2
:104A800048634C2008614861034848637047000050
:104A9000ADDE0000401C0140FECA0000044805498C
:104AA000486340200861486103484863704700003C
:104AB000ADDE0000401C0140FECA0000044805496C
:104AC0004863482008614861034848637047000014
:104AD000ADDE0000401C0140FECA000010B5FFF72B
:104AE000DBF802480249C86310BD0000FFFF000068
:104AF000001C014010B52248224948632248086240
:104B0000E120C0001F49403908631B208001086272
:104B10004C201C490861486142204862102088618D
:104B20001948FB30486017494039C8630220886340
:104B30001648086040424860002088601B208001C1
:104B4000C86012480861404248610F48FB30486322
:104B50000C48006A082108430A4908620C48486367
:104B600001210D2000F024F80D200121814042098F
:104B70009200084BD218116000BFFEF7C9F810BDB3
:104B8000ADDE0000401C014004FF0000F8F8FFFF0C
:104B9000FECA000000E100E0C206D20E01219140F1
:104BA00042099200014BD2181160704700E100E009
:104BB00010B5002819DA1A4A03071B0F083B9B0897
:104BC0009B00D2588307DC0EFF23A3409A438B0738
:104BD0001B0E8407E40EA3401A43114B0407240F55
:104BE000083CA408A4001A5118E00E4A03231B0233
:104BF000D21883089B00D2588307DC0EFF23A34002
:104C00009A438B071B0E8407E40EA3401A43054BFF
:104C1000032424021B198408A4001A5110BD0000AB
:104C20001CED00E000E100E010B5002819DA1A4A96
:104C300003071B0F083B9B089B00D2588307DC0E21
:104C4000FF23A3409A438B071B0E8407E40EA34067
:104C50001A43114B0407240F083CA408A4001A515E
:104C600018E00E4A03231B02D21883089B00D25877
:104C70008307DC0EFF23A3409A438B071B0E840798
:104C8000E40EA3401A43054B032424021B19840895
:104C9000A4001A5110BD00001CED00E000E100E08E
:104CA00010B5002819DA1A4A03071B0F083B9B08A6
:104CB0009B00D2588307DC0EFF23A3409A438B0747
:104CC0001B0E8407E40EA3401A43114B0407240F64
:104CD000083CA408A4001A5118E00E4A03231B0242
:104CE000D21883089B00D2588307DC0EFF23A34011
:104CF0009A438B071B0E8407E40EA3401A43054B0F
:104D0000032424021B198408A4001A5110BD0000BA
:104D10001CED00E000E100E00146E1221201521A20
:104D20005010424292B2064B1A601A4650604242FC
:104D300092B21A611A465061024A1A627047000024
:104D4000001C0140FE0600001148008A114908803D
:104D50000846808A022804D1084600880E49884205
:104D600008DD00200A490880084600888968484311
:104D70000749486006484068084948600846006995
:104D800000B2034988810548406900B2C881704774
:104D900068020020C0020020983A00000050014044
:104DA00030B50246354C0023E35E354C2380354B4D
:104DB0005B8DD31A1BB2314C23800023E35E324C4F
:104DC000236206236362314BDB89A46A1B1918B284
:104DD0002A4C0023E35E2A4C0025655F5B1B2A4CAE
:104DE00023620323636223469B6A1B181BB2274C72
:104DF000E381244C403C2423E35E3124E443A3427A
:104E000008DD204B403B24241C5F322C02DA0023B7
:104E10001E4CE3811B4C403C2423E35EE12424012F
:104E20006343194C2362174C403C0423E35E164C49
:104E3000636223469B6A19B2002901DA4B4219B218
:104E4000E1231B01994200DD1946002A06D1002307
:104E50000E4CE38123460E20185E06E00B4BDB89E7
:104E6000E1242401641A1B1918B2094B984201DD90
:104E7000184602E0002800DA002030BD240000209F
:104E8000260000208801002000500140C0020020C0
:104E9000480D000000200349088003498882034828
:104EA00048827047E2020020C0020020B80B0000D8
:104EB00010B5FFF7E3FD084808490860E120C0008D
:104EC000486005480861E120C00048610448486323
:104ED00003200449888210BDF8F80000001C01403E
:104EE000FFFF0000C00200200948008800280DD004
:104EF0000120C0030649088000208880088148817D
:104F00008881084600884004400C088070470000F3
:104F1000E202002010B52A490020085E7D21C90068
:104F2000884206DA26480088401C00B224490880DE
:104F300002E00020224908802248808A022816D1F7
:104F4000C1012148FEF7C1FA1D490020085EFF217A
:104F5000F531884205DA80211B484038FEF7B5FA62
:104F60002BE0802118484038FEF7A6FA25E01548C6
:104F7000808A032817D1FF2101311348FEF79CFADC
:104F80000F490020085EFF21F531884205DA8021B3
:104F90000D484038FEF799FA0FE080210A48403862
:104FA000FEF78AFA09E0FF2101310748FEF784FA8B
:104FB000802105484038FEF788FAFEF7F9FE10BD5B
:104FC00030000020C0020020C020014010B500F0D9
:104FD000A7F800F077F900F043F900F0F3F84C4837
:104FE0000088002802D14A4988706FE0484800884C
:104FF00002210840002803D001204549887065E05F
:1050000043480078C007C00F002803D00220404961
:1050100088705BE03E48008804210840002803D0E7
:1050200003203B49887051E039480088202108401E
:10503000002803D004203649887047E034480088AF
:1050400010210840002803D00520314988703DE038
:105050002F480088012189030840002803D006203A
:105060002B49887032E02A480088402108400028F7
:1050700003D007202649887028E0254800880821A9
:105080000840002803D00820214988701EE02048ED
:1050900000880121C9030840002803D009201C49C9
:1050A000887013E01A48008880210840002803D047
:1050B0000A201749887009E0154800880121090372
:1050C0000840002802D00C20114988701048007850
:1050D000002818D0FFF7ECFE04200E4988820E4805
:1050E0000088642805DA0C480088401C0A490880BA
:1050F0000CE008210948FEF7DFF980210748403815
:10510000FEF7DAF902E000200349088010BD000034
:10511000E2020020C00200202E000020802001407A
:10512000254881882548008E814206DD2248008876
:1051300002210843204908803CE02148016B1F48B8
:10514000008D814207DC1E4840302021415E1B4813
:10515000408C814207DD184881881848C08D0818A6
:105160001549888026E01648016B1448408D81421D
:1051700007DC134840302021415E1048808C81427A
:1051800005DD0D488088401C0B49888012E00C48E2
:10519000006B0A494039498D88420BDA0848403093
:1051A0002021415E05484038008D814202DA00200E
:1051B0000149888070470000E2020020300300208F
:1051C000C801002022481021415E2248408E8142C1
:1051D00006DC1F481821415E1E48808E814214DD86
:1051E0001D480C21415E1B48C08E814206DA1A48D8
:1051F0008089401C00B21849888127E01648008841
:10520000402108431449088020E011481021415EE4
:105210001048408E0A38814218DA0D481821415E44
:105220000C48808E0A38814210DA0B480C21415E0E
:10523000002905DD8089401E00B20749888105E00C
:105240000548008805490840034908807047000068
:105250004801002030030020E2020020BFFF0000D0
:10526000154841891548C08B814206DD12480088E7
:1052700008210843104908801DE011480221415EC1
:105280000E48408B814205DD0B484089401C0A498D
:10529000488110E00848408900280CD008480221C5
:1052A000415E0648408B6438814204DA02484089F6
:1052B000401E014948817047E2020020300300206F
:1052C00088010020154801891548008C814206DDBF
:1052D0001248008804210843104908801DE0114845
:1052E0000221415E0E48808B814205DA0B4800891D
:1052F000401C0A49088110E00848008900280CD0A9
:1053000008480221415E0648808B3230814204DD2C
:1053100002480089401E014908817047E2020020CE
:10532000300300208801002010B5A248808A0028A0
:1053300039D1A1480088002808D19E48808B1828C0
:1053400005DA9C48808B401C9A49888331E1994852
:10535000808B18281DD199490420085E7D21C90041
:10536000884203DD19209349888322E10420914972
:10537000888280219248FEF79FF8082190484030AB
:10538000FEF79AF88F480088012108438D4908806C
:105390000FE18848808B1928D8D10020854988835F
:1053A0000120888205E18348808A01281CD1824837
:1053B000408840105A3804B27F480088A042C5D1C6
:1053C00008217F484030FEF780F8012189027C489F
:1053D0004030FEF771F80520764988820020C881A8
:1053E00088814881C880E4E07248808A052821D1FC
:1053F000714800880028A9D180217148FEF75CF827
:105400006E492620085E704988429FDD6B4826223F
:10541000825E014640310220085EC838824295DD36
:105420006448807E012891D1FFF748FB0220614942
:105430008882BEE05F48808A022877D15E48008873
:10544000002817D15B491220085E16228A5E90421E
:1054500005DA0846408A401C00B2488203E05548FD
:10546000C08A5449488253491220085E00F0B6F8B9
:105470005049488151480421415E4E4A1620105E31
:10548000FF30F53081420BDC1046807E002807D0CB
:105490004A4840302A21415E7D204001814204DD9E
:1054A000FFF706FD03204349888244480421415EFA
:1054B000404A1620105EFF302D30814206DD00206C
:1054C0001146888108468089488111E03B480421C3
:1054D000415E384A1620105EC830814208DD104611
:1054E0000C21415E48101146888108468089488118
:1054F00032492620085E3449884218DD2D490A20A9
:10550000085E2E49403100228A5E504340002F49F8
:1055100008622A482621415E480008182B49486243
:105520000846806A00B22349088112E027E0214939
:105530000A20085E2149403100228A5E5043400023
:1055400022490862224848620846806A00B2194926
:10555000088118480821415E002904DA0089404288
:1055600000B21449088113490820085EFFF718FCAF
:105570001049C8800620085EFFF7CEFB19E00D48F1
:10558000808A032814D10B48807E012811D10B4951
:105590000420085E0F4988420BDA0F48054948820B
:1055A0001220085E00F01AF801200249888200E00B
:1055B00000BF10BDC002002068020020480100208A
:1055C00040200140E2020020520300000050014050
:1055D000F6090000D80E0000B80B000010B5024616
:1055E0002B48808A032802D132202A4B18802A4B6C
:1055F0000020185E294B188029488088101A00B2B4
:10560000254B18800020185E264B18621420586223
:105610001F4880899B6AC01801B21F4B0020185E8A
:105620001E4B00241C5F001B1E4B18620320586297
:105630001846806A401801B2154B0C20185E3230B3
:10564000884203DA18468089323001B2104B1820A4
:10565000185E104B1B88984205DD0E480088401CE0
:105660000C4B188003E00A48008B0A4B188009484D
:105670000088814203DD0748008801B202E000296A
:1056800000DA00210248818103460C20185E10BD1B
:10569000C00200202C000020280000202A0000204A
:1056A000480100200050014010B501208007406BE8
:1056B000FF2101310843890548630A20FDF70EFCEC
:1056C00001208007406BCF210843012189074863EF
:1056D0000846006AFF210902084001218907086283
:1056E0000846006A05210843890708620846806A5F
:1056F000886210BD30B5114C2468114D2C400F4DFF
:105700002C602C4624686D042C430C4D2C60034601
:10571000CC1CA108890008E09C08A400074D6C601F
:105720001468AC60121D091F1B1D0029F4D1034C25
:105730002468034D2C40014D2C6030BD0004004016
:10574000FF7FFF7700BFFEE770B51848006D0128A6
:1057500005DC1648006D0021C943884211DA13495F
:10576000086DFCF7DDFD0546114801682846FCF789
:105770005CFD04460D48416B2046FCF752FD0B4989
:1057800048630A49486B0B49FCF714FE03D20948E9
:105790000649486308E00549486B0749FCF700FEE5
:1057A00002D205480149486370BD0000480100204D
:1057B000F002002000007041000070C100B51848E0
:1057C00018490863C813C10348636420FDF79AFBB6
:1057D000FF200230134908600120FDF77FFB012004
:1057E0008007406B012189030843090448630220B4
:1057F000FDF774FB01208007806B0121C90308437A
:10580000C90388630220FDF769FBFF207830054952
:10581000086005480068C91208430349086000BDD4
:10582000837A0000800000400004004010B503208F
:105830000002064908600648486003210020FFF77F
:10584000F3F90020FFF7A8F910BD0000001801408F
:105850002823000010B50A480A490862FF20000208
:105860000849403148620020C0430649486201218E
:105870000320FFF7D9F90320FFF78EF910BD0000D0
:10588000060300004018014010B5F02005490863E8
:10589000FFF7CCFFFFF7DEFF0348024988630348A8
:1058A000486310BDC0180140FFFF00000104000064
:1058B0007047000010B50B48C069C007C00F002832
:1058C00004D001F0B3FA01200649C8610548C06957
:1058D00002210840002804D001F014F902200149F7
:1058E000C86110BD002C01400146C8687047C16006
:1058F0007047000010B51C480078012801D101F064
:10590000F3F9322001F018F91848407D00282AD018
:105910000E211648001DFDF725FF1449C8820846D0
:10592000807C0002C97C08431049C98A884202D1A0
:1059300001F01EF914E00D48807C00020B49C97C7F
:105940000843401C0949C98A884209D1074800799F
:10595000452805D105484079472801D101F04AF989
:1059600000200249487510BD0400002050020020AC
:1059700010B51A48C079012806D1CC211848017207
:1059800001201849087028E01448C07902281AD16B
:1059900014480078032816D112484078022812D102
:1059A0001148007802280ED0CC210D480172022047
:1059B0000C49087001200D49C874FDF773FC0120E3
:1059C0000849887009E00548C079032805D1CC2131
:1059D0000348017203200349087010BD50020020E3
:1059E000380200200400002010000020D003002016
:1059F0000548C079012805D1CC2104480172012055
:105A000003498870704700005002002038020020CF
:105A10000400002010B5F148C07901280AD1F048EF
:105A2000808B0004010EEF480172ED48017FED48C4
:105A30004172D2E1E948C079022813D1E849886966
:105A4000FCF799FC642148430004010EE54801720B
:105A5000E3498869FCF78FFC64214843C1B2E148FF
:105A60004172BAE1DD48C079032832D1DC48008DAB
:105A70000112DC480172DA48008DC1B2D948417286
:105A8000D748408D0112D7488172D548408DC1B2A8
:105A9000D448C172D248008C0004010ED148017371
:105AA000CF48008CC1B2CF484173CD49486A7D21AF
:105AB000C900FCF73BFB0004010ECA488173C849CA
:105AC000486A7D21C900FCF731FBC1B2C548C173EA
:105AD00083E1C248C079102821D1C1484030C08933
:105AE0000112C0480172BE484030817BBD484172FE
:105AF000BB484030008A0112BA488172B848403031
:105B0000017CB848C172B6484030C08A0112B5481D
:105B10000173B3484030817DB24841735DE1AF48C5
:105B2000C079112821D1AE484030808A0112AD4899
:105B30000172AB484030017DAA484172A84840300C
:105B4000408A0112A7488172A5484030817CA5484F
:105B5000C172A3484030008B0112A2480173A048D3
:105B60004030017E9F48417337E19C48C07912283C
:105B700016D19B484030408B01129A4801729848D8
:105B80004030817E9748417295484030C08B011269
:105B90009448817292484030817F9248C1721CE1E2
:105BA0008E48C079132817D18D484030808B011260
:105BB0008C4801728A484030017F8A484172884887
:105BC0004030008C01128748817285484030008C3B
:105BD000C1B28448C17200E18048C079142824D140
:105BE0007F484030808C01127E4801727C484030F2
:105BF000808CC1B27B48417279484030408D01129F
:105C00007848817276484030408DC1B27548C17283
:105C100073484030008E0112724801737048403062
:105C2000008EC1B26F484173D7E06C48C079152827
:105C300024D16B484030408C01126A480172684898
:105C40004030408CC1B26748417265484030008D99
:105C500001126448817262484030008DC1B26148CF
:105C6000C1725F484030C08D01125E4801735C48CC
:105C70004030C08DC1B25B484173AEE05748C07937
:105C8000162818D156484030C08C01125548017270
:105C900053484030C08CC1B25248417250484030E5
:105CA000808D01124F4881724D484030808DC1B2C5
:105CB0004C48C17291E04948C079172824D148481E
:105CC0004030408E01124748017245484030408EB6
:105CD000C1B24448417242484030808E011241486E
:105CE00081723F484030808EC1B23E48C1723C480C
:105CF0004030C08E01123B48017339484030C08E9D
:105D0000C1B23848417368E03448C07918282ED1B0
:105D100033484030808F01123248017230484030A1
:105D2000808FC1B22F4841722D484030C08F011280
:105D30002C4881722A484030C08FC1B22948C172B4
:105D4000274880300088011226480173244880309B
:105D5000017824484173224880304088011221484C
:105D600081731F48803081781E48C17335E01B481D
:105D7000C079192831D11A48408E01121948017290
:105D80001748408EC1B2174841721548808E0112E3
:105D9000144881721248808EC1B21248C1721048F4
:105DA000C08E01120F4801730D48C08EC1B20D485C
:105DB00041730B48008F01120A4881730848008F15
:105DC000C1B20848C1730648408F011205480174EA
:105DD0000348408FC1B20348417410BD50020020F7
:105DE000F00200203802002038B5B148C0790428FC
:105DF00004D1B048817DB048017258E1AC48C07907
:105E000002280CD1AB484030008B0004010EAA4898
:105E10000172A8484030017EA748417247E1A4487A
:105E2000C079032810D1A549C86CFCF784FA00900A
:105E30006D46002405E02A5D9F48001D211D425447
:105E4000641C042CF7DB32E19948C079052811D194
:105E50009A490820085EFCF763FA00906D4600241A
:105E600005E02A5D9448001D211D4254641C042C49
:105E7000F7DB1CE18E48C079062810D18F49086BEA
:105E8000FCF759FA00906D46002405E02A5D8A4827
:105E9000001D211D4254641C042CF7DB07E18448DB
:105EA000C079072810D18549886FFCF744FA009023
:105EB0006D46002405E02A5D7F48001D211D4254E7
:105EC000641C042CF7DBF2E07948C079082811D172
:105ED0007A498031C86EFCF72EFA00906D46002496
:105EE00005E02A5D7448001D211D4254641C042CE9
:105EF000F7DBDCE06E48C07909280CD1002407E00C
:105F00006C481830025D6C48001D211D4254641C11
:105F1000042CF5DBCBE06648C0790A280CD10024BC
:105F200007E064481C30025D6348001D211D425497
:105F3000641C0A2CF5DBBAE05D48C0790B280CD153
:105F4000002407E05B482630025D5B48001D211DF0
:105F50004254641C0A2CF5DBA9E05548C0790C2892
:105F60000CD1002407E053483030025D5248001D38
:105F7000211D4254641C0A2CF5DB98E04C48C07982
:105F80000D280CD1002407E04A483A30025D4A4807
:105F9000001D211D4254641C0A2CF5DB87E0444897
:105FA000C0790E280CD1002407E042484430025D3D
:105FB0004148001D211D4254641C0A2CF5DB76E08B
:105FC0003B48C0790F280CD1002407E039484E30F7
:105FD000025D3948001D211D4254641C0A2CF5DB6A
:105FE00065E03348C079102822D13448808B000402
:105FF000010E314801723148017F2F4841722F480C
:10600000008F0004010E2C4881722C48008FC1B211
:106010002948C17229488030406D0004010E26488D
:10602000017326488030406DC1B2234841733EE081
:106030001F48C079112830D130211F4801727821C2
:1060400041721F4800890004000F1E49095C1A486C
:1060500081721B4800890005000F1A49095C164827
:10606000C1721748007A0006000F1649095C1248F1
:1060700001731348007A0007000F1249095C0E48AB
:106080004173002406E020220B48001D21460A31FE
:106090004254641C042CF6DB09E0002405E0FF22D6
:1060A0000548001D211D4254641C0A2CF7DB38BD35
:1060B0005002002074030020380200204801002014
:1060C000D00300204473000008B55548C07901286A
:1060D00028D1032053490870012048705248406875
:1060E000000E0871504840680002010E4D48417191
:1060F0004D4880880004010E4A4881714A48017960
:106100004848C17101794948017246484179474878
:10611000417244488179454881724248C179434877
:10612000C1727BE03E48C079022877D13D48407873
:10613000012873D13B4800791C214840694608700A
:106140003848417915204140684641703548817989
:10615000D7204140684681703248C1793A20414099
:106160006846C17080780007010E68468078F0228A
:10617000104001432B480171684600780007010E6A
:106180006846C078104000110143264841716846B6
:106190000078F02108406946497811400911084308
:1061A000204988716946C8780007000E49780907B8
:1061B000090F08431B49C871084601791848007A3D
:1061C000814222D1174841791548407A81421CD139
:1061D000144881791248807A814216D11148C179D8
:1061E0000F48C07A814210D102200E4948700846FB
:1061F00041780E4801720E4800880121C903084306
:106200000B490880FEF744FA08E000200549487071
:1062100001200870084641780448017208BD00005A
:1062200050020020040000206802002038020020F4
:10623000A802002010B5CC21E1480172E148C079E4
:10624000002818D1E04800880121C9030843DE492D
:106250000880FEF71DFAFF209130FCF73FFEFCF7A7
:10626000A5FE6420FCF73AFED74800884004400CA5
:10627000D5490880A2E1D348C079012809D1D14885
:10628000007A0102CF48407A081800B2CF498883CB
:1062900094E1CC48C079022810D1CA49097A0A028F
:1062A000C849497A5018FCF73BF80446C849FBF73F
:1062B000BCFFC6498861FDF797FA7FE1C148C07904
:1062C000032824D1BF48007A0102BE48407A08184A
:1062D000BE490885BB48807A0102BA48C07A0818CE
:1062E000BA494885B748007B0102B648407B081888
:1062F00000B2B6490884B348807B0102B148C07B34
:1063000008187D21C9004843B049486256E1AD48AC
:10631000C07910281ED1AB48007A0102A948407A02
:10632000081881B2A9484030C181A648807A01028C
:10633000A448C07A081881B2A44840300182A1481C
:10634000007B01029F48407B081881B29F48403083
:10635000C18233E19B48C07911281ED19948007A47
:1063600001029848407A081881B2984840308182EA
:106370009448807A01029348C07A081881B2934801
:10638000403041828F48007B01028E48407B0818D4
:1063900081B28E484030018310E18A48C0791228CA
:1063A00014D18848007A01028648407A081881B2E0
:1063B0008648403041838348807A01028148C07A10
:1063C000081881B281484030C183F7E07D48C07928
:1063D000132814D17B48007A01027A48407A0818C1
:1063E00081B27A48403081837648807A01027548CC
:1063F000C07A081881B2754840300184DEE07148E7
:10640000C07914281ED16F48007A01026D48407A85
:10641000081881B26D48403081846A48807A010250
:106420006848C07A081881B268484030418565489C
:10643000007B01026348407B081881B2634840300A
:106440000186BBE05F48C07915281ED15D48007AFF
:1064500001025C48407A081881B25C4840304184AF
:106460005848807A01025748C07A081881B25748C4
:10647000403001855348007B01025248407B081898
:1064800081B252484030C18598E04E48C079162804
:1064900014D14C48007A01024A48407A081881B267
:1064A0004A484030C1844748807A01024548C07A52
:1064B000081881B24548403081857FE04148C07965
:1064C00017281ED13F48007A01023E48407A08183A
:1064D00081B23E48403041863A48807A01023948CC
:1064E000C07A081881B23948403081863548007B2F
:1064F00001023448407B081881B234484030C186DC
:106500005CE03048C079182828D12E48007A010272
:106510002C48407A081881B22C484030818729489D
:10652000807A01022748C07A081881B22748403093
:10653000C1872448007B01022248407B081881B2B1
:106540002248803001801F48807B01021D48C07BAB
:10655000081881B21D48803041802FE01948C07969
:10656000192828D11748007A01021648407A0818DD
:10657000164948861348807A01021248C07A0818E2
:10658000124988860F48007B01020E48407B08189C
:106590000E49C8860B48807B01020A48C07B081858
:1065A0000A4908870748007C01020648407C081811
:1065B0000649488702E0EE210148017210BD000043
:1065C0003802002050020020A8020020F002002023
:1065D0000AD7233CF8B58448C07904280AD18248F8
:1065E000007A824988758048017A81480172FCF7F7
:1065F0001FFCDFE07C48C079022812D17A48007A7B
:1066000000027949497A084307B278484030078345
:106610007548017A764801727348417A744841722C
:10662000C8E07148C079032814D16F4D08352E6831
:106630003046FBF7A0FE6F49C864002407E06A48B3
:10664000001D211D425C6A48001D4254641C042C3C
:10665000F5DBAFE06448C079052815D1624D0835F7
:106660002E683046FBF76EFE00B2624908810024B6
:1066700007E05D48001D211D425C5D48001D42543D
:10668000641C042CF5DB95E05748C079062814D12A
:10669000554D08352E683046FBF76DFE55490863A9
:1066A000002407E05048001D211D425C5048001D99
:1066B0004254641C042CF5DB7CE04B48C07907286D
:1066C0001ED1494D08352E684B493046FBF772FE06
:1066D00070D24A493046FBF763FE6BD23046FBF777
:1066E0004AFE44498867002407E03F48001D211DF9
:1066F000425C3F48001D4254641C042CF5DB59E009
:106700003948C07908281FD1374D08352E683A49D5
:106710003046FBF74FFE4DD238493046FBF740FE7E
:1067200048D23046FBF727FE32498031C866002444
:1067300007E02D48001D211D425C2D48001D4254DC
:10674000641C042CF5DB35E02748C079092811D1F9
:1067500000240CE02448001D211D415C2348183012
:106760000155025D2248001D211D4254641C042C69
:10677000F0DB1FE01C48C0790A2811D100240CE08E
:106780001948001D211D415C18481C300155025D4F
:106790001748001D211D4254641C0A2CF0DB09E03F
:1067A000002405E0FF221248001D211D4254641CF4
:1067B0000A2CF7DB124800880121C903084310495D
:1067C0000880FDF765FFFF209130FCF787FBFCF7A1
:1067D00021FD6420FCF782FB094800884004400C3E
:1067E00007490880F8BD0000500200207403002013
:1067F00038020020480100200000C8420000FA468C
:10680000A8020020F8B54A48C079022834D1484887
:10681000007A00280DD1012046490871FDF738FFA4
:106820006420FCF75BFB002143484177032101779B
:106830007DE03F48007A032879DC00203D4908715B
:10684000FDF726FF6420FCF749FB3948017A3A48F6
:1068500041770321017739480078002867D135490D
:10686000088002203649C8760846C07E02285ED1DC
:106870000120324908705AE02D48C079032856D1CA
:106880002B48007A01022A48407A081885B2284825
:10689000807A01022648C07A081886B22448007B14
:1068A00001022348407B081887B22148807B009072
:1068B0001F48C47B22498D7630B2C88238B2088323
:1068C0000098C8761D480078002806D10846C07E8A
:1068D000022802D1012019490870184800780128BF
:1068E00025D11848807DA04221D016488475FCF738
:1068F0009FFA154988691549FBF752FD07D1A42075
:106900000D4920398860FF20913048800FE00E4902
:1069100088690F49FBF744FD07D1C4200649203997
:106920008860FF204F30488001E0FCF75DFFF8BD34
:1069300050020020A8020020880200201000002041
:10694000C002002074030020F00200200000484232
:106950000000704270B55348C079012822D15148D7
:10696000007A01024F48407A081884B24E4A1189D1
:10697000C03A926F62431046FBF7C2FB4A49C039E6
:1069800088670846806F642805D30846806F7D219C
:106990000902884205D945491220085E4249C0399A
:1069A00088677EE03F48C079022823D13D48007ABD
:1069B00001023C48407A081884B23B4A2021515ECB
:1069C000403AD26E62431046FBF79AFB3649403993
:1069D000C8660846C06E642805D30846C06E7D218F
:1069E000090288425DD931481421415E2E48403861
:1069F000C16656E02B48C079032812D12948007A95
:106A000001022848407A081885B2274A1188C03AFE
:106A1000126B6A431046FBF773FB2349C0390863C6
:106A20003FE02048C079042816D11E48007A0102B0
:106A30001C48407A081885B21B4AC03A0421515EAE
:106A4000134608229A5E6A431046FBF76FFB00B2BA
:106A50001549C039088124E01248C079052820D0A2
:106A60001048C07900281CD1114800880121C903B1
:106A700008430F490880FDF70BFEFF209130FCF71B
:106A80002DFAFCF7C7FB6420FCF728FA08480088B9
:106A90004004400C06490880002106484177032144
:106AA000017770BD5002002008020020740300200E
:106AB000A80200208802002010B51D200D49486062
:106AC0000D48886000200860FF20C86103208861AD
:106AD00002210E20FEF7E4F80E2001218140420938
:106AE0009200064BD218116000BF012004490870C3
:106AF00010BD0000002C01404B1D000000E100E033
:106B00000400002010B50A48007D102807DA094863
:106B1000FEF7EAFEC1B20648027D001D8154002046
:106B2000034908600846007D401C087510BD000040
:106B300050020020002C01400C490968814205DA0E
:106B40000A490968491C094A11600EE007490968A9
:106B500081420AD10549097D491E044A51751146F1
:106B60000968491C1160002111757047500200200E
:106B700010B51C4800790F2813D11A484079F02825
:106B80000FD1184880795A280BD11648C079362879
:106B900007D11548008801210903084312490880DC
:106BA0001FE0104800797D281BD10E484079D72876
:106BB00017D10C488079FE2813D10A48C079DA2809
:106BC0000FD1FDF721F909480078002809D10220EA
:106BD0000749C8760846C07E022802D10120034931
:106BE000087010BD50020020A802002010000020F4
:106BF000C002002010B545203849087147213748A8
:106C0000417137488179354881713548C1793348B8
:106C1000C171EE21017232488079102802D1FEF74D
:106C2000A7FE46E02E488079112802D1FEF7E0FE4B
:106C30003FE02B488079222802D1FFF7D5F838E0D1
:106C4000274880792E2806D126480078022802D0CD
:106C5000FFF7C0FC2DE0224880792F2802D1FFF7F2
:106C6000D1FD10BD1E488079272806D11D48007827
:106C7000022802D0FFF728FA1BE019488079802803
:106C800006D118480078022802D0FFF763FE10E012
:106C900013488079212802D1FEF7BCFE09E0104894
:106CA00080792D2805D10F480078022801D0FFF700
:106CB000C1FA0E210948001DFCF754FD401E07498A
:106CC000C8820846C08A011204488174817DC1745B
:106CD000102000F095F800BFC3E700003802002044
:106CE000500200201000002010B53F4800686428C2
:106CF00005DA3D480068401C3B49086073E000200D
:106D00003949086055203949087139480078022806
:106D10000ED1384840880004010E3448417135488E
:106D2000817832488171344881783048817310E02D
:106D300030484038C08C0004010E2C4841712D4869
:106D40004038C08CC1B2294881712C4881782748CD
:106D5000817328488030008C0004010E2348C171E3
:106D600024488030008CC1B220480172214840384C
:106D700080880004010E1D4841721E484038017988
:106D80001A4881721B484038017E184841731948DF
:106D90004038017C1548C173164840300824045F10
:106DA000002C00DA00242004010E10480174447401
:106DB0001048808D0004010E0C48C1720D48808D72
:106DC000C1B20A4801730E21001DFCF7CBFC074934
:106DD000C8820846C08A011204488174817DC1744A
:106DE000102000F00DF810BD0C000020380200202B
:106DF0001000002088010020E2020020A8020020EC
:106E000010B504460748407D002800D010BD012081
:106E1000044908750846447501790348FEF767FD83
:106E200000BFF3E738020020002C014010B50B48EA
:106E3000007D0A49497D88420CDA0848027D001D20
:106E4000815C0748FEF753FD0448007D401C034960
:106E5000087502E000200149487510BD3802002085
:106E6000002C014010B5FEF745FDFCF76DFD01203B
:106E70000149886310BD0000C018014010B50748E3
:106E8000806B012189020840002805D0FCF768FFCB
:106E9000012080020149886310BD0000C018014034
:106EA00030B47446641E2578641CAB4204D3635D21
:106EB0005B00E31830BC18471D46F8E702E008C83D
:106EC000121F08C1002AFAD170477047002001E064
:106ED00001C1121F002AFBD17047000001204003AE
:106EE0001649886072B6FCF70DFBFDF703FEFBF751
:106EF000F9FEFEF7C9FCFFF7DFFD7D20C000FBF7C0
:106F0000EDFFFCF759FCFCF771F8FBF791FFFCF77C
:106F1000F1FD62B67D20C000FBF7E0FF0CE0FBF75F
:106F200025FBFBF7F5FE06488078012804D1642094
:106F3000FBF7D4FFFCF750FCF1E7000000ED00E0A8
:106F4000040000202801090F13171A1C1E202224F8
:106F50002627292A2B2C2D2F303131323334353648
:106F6000373738393A3A3B3C3C3D3D3E3F3F404065
:106F700041414242434344444545464647474848C9
:106F80004949494A4A4B4B4B4C4C4D4D4D4E4E4E48
:106F90004F4F5050505151515252525353535454D9
:106FA0005455555555565656575757585858585979
:106FB00059595A5A5A5A5B5B5B5C5C5C5C5D5D5D1F
:106FC0005D5E5E5E5E5F5F5F5F60606060616161CD
:106FD000616262626263636363646464646565657D
:106FE0006565666666666767676767686868686933
:106FF000696969696A6A6A6A6B6B6B6B6B6C6C6CEA
:107000006C6C6D6D6D6D6D6E6E6E6E6E6F6F6F6FA5
:10701000707070707071717171717272727272735E
:10702000737373737474747474747575757575761D
:1070300076767676777777777778787878787979DB
:107040007979797A7A7A7A7A7A7B7B7B7B7B7C7C9A
:107050007C7C7C7D7D7D7D7D7D7E7E7E7E7E7F7F5A
:107060007F7F7F808080808080818181818182821A
:1070700082828283838383838384848484848585DA
:10708000858585858686868686878787878788889B
:107090008888888889898989898A8A8A8A8A8B8B5B
:1070A0008B8B8B8C8C8C8C8C8C8D8D8D8D8D8E8E1A
:1070B0008E8E8E8F8F8F8F8F9090909090909191D9
:1070C0009191919292929292939393939394949498
:1070D0009494959595959596969696969797979755
:1070E00097989898989899999999999A9A9A9A9B11
:1070F0009B9B9B9B9C9C9C9C9C9D9D9D9D9D9E9ECB
:107100009E9E9F9F9F9F9FA0A0A0A0A1A1A1A1A183
:10711000A2A2A2A2A3A3A3A3A3A4A4A4A4A5A5A539
:10712000A5A6A6A6A6A7A7A7A7A7A8A8A8A8A9A9ED
:10713000A9A9AAAAAAAAABABABABACACACACADAD9F
:10714000ADADAEAE28282828010407090B0D0F109D
:1071500011131415161718191A1B1C1C1D1E1F1F9E
:1071600020212122222324242525262627272828DA
:107170002929292A2A2B2B2C2C2C2D2D2E2E2E2F53
:107180002F2F3030303131313232323333333434E7
:107190003435353536363636373737373838383987
:1071A0003939393A3A3A3A3B3B3B3B3C3C3C3C3D33
:1071B0003D3D3D3E3E3E3E3E3F3F3F3F40404040E6
:1071C000404141414142424242424343434343449E
:1071D000444444444545454545464646464647475A
:1071E00047474748484848484849494949494A4A19
:1071F0004A4A4A4A4B4B4B4B4B4C4C4C4C4C4C4DDB
:107200004D4D4D4D4D4E4E4E4E4E4E4F4F4F4F4F9E
:107210004F50505050505051515151515152525263
:107220005252525353535353535454545454545529
:1072300055555555555556565656565657575757F0
:107240005757585858585858585959595959595AB8
:107250005A5A5A5A5A5A5B5B5B5B5B5B5C5C5C5C80
:107260005C5C5C5D5D5D5D5D5D5E5E5E5E5E5E5E4A
:107270005F5F5F5F5F5F5F60606060606061616112
:1072800061616161626262626262636363636363DC
:1072900063646464646464646565656565656666A5
:1072A000666666666667676767676768686868686E
:1072B00068686969696969696A6A6A6A6A6A6B6B36
:1072C0006B6B6B6B6B6C6C6C6C6C6C6D6D6D6D6DFE
:1072D0006D6E6E6E6E6E6E6F6F6F6F6F6F6F7070C4
:1072E000707070707171717171717272727272728C
:1072F000737373737373747474747475757575754F
:107300007576767676767677777777777778787812
:1073100078787979797979797A7A7A7A7A7B7B7BD4
:107320007B7B7B7C7C7C7C7C7D7D7D7D7D7E7E7E95
:107330007E7E7F7F7F7F7F80808080808181818152
:1073400081828282303132333435363738394142A6
:10735000434445464547323230333132313341437D
:10736000323230563530485A3230303057202020B3
:10737000202045473830323620763131332E332EB7
:107380003234303830395354445F45472E30303131
:10739000000005800F800A001B801E001400118071
:1073A000338036003C00398028002D802780220061
:1073B000638066006C00698078007D807780720051
:1073C000500055805F805A004B804E004400418041
:1073D000C380C600CC00C980D800DD80D780D20031
:1073E000F000F580FF80FA00EB80EE00E400E18021
:1073F000A000A580AF80AA00BB80BE00B400B18011
:10740000938096009C00998088008D808780820000
:10741000838186018C01898198019D8197819201E8
:10742000B001B581BF81BA01AB81AE01A401A181D8
:10743000E001E581EF81EA01FB81FE01F401F181C8
:10744000D381D601DC01D981C801CD81C781C201B8
:10745000400145814F814A015B815E0154015181A8
:10746000738176017C01798168016D816781620198
:10747000238126012C01298138013D813781320188
:10748000100115811F811A010B810E010401018178
:10749000038306030C03098318031D831783120358
:1074A000300335833F833A032B832E032403218348
:1074B000600365836F836A037B837E037403718338
:1074C000538356035C03598348034D834783420328
:1074D000C003C583CF83CA03DB83DE03D403D18318
:1074E000F383F603FC03F983E803ED83E783E20308
:1074F000A383A603AC03A983B803BD83B783B203F8
:10750000900395839F839A038B838E0384038183E7
:10751000800285828F828A029B829E0294029182DF
:10752000B382B602BC02B982A802AD82A782A202CF
:10753000E382E602EC02E982F802FD82F782F202BF
:10754000D002D582DF82DA02CB82CE02C402C182AF
:10755000438246024C02498258025D82578252029F
:10756000700275827F827A026B826E02640261828F
:10757000200225822F822A023B823E02340231827F
:10758000138216021C02198208020D82078202026F
:10759000B0750000000000204801000070240000C9
:1075A0006C76000048010020A0060000CC6E0000B0
:1075B000012283FAFF7232121612241248126C1A38
:1075C000FF0140090AD7A33BCDCCCC3D190C2D3D82
:1075D0000AD72304223E100E484298082E09A4061A
:1075E000800CC091212809E803D007A00F740E0871
:1075F00016B80BDC0514121C126412051201166079
:1076000009204E0A142C010E1202100A8813C0120F
:10761000F00A280A19129616C4095203321010F4FF
:1076200001B004E803E8036009980898081E1CB834
:107630000B5538129616F0555046C81AA0582AC84D
:10764000780915842F70424C0478058414804F12F9
:107650008D40064006840B2E5203841CB0044C025D
:0C7660008984169D47983AC83A78840047
:04000005000020C116
:00000001FF
